{
  "contractName": "Pool",
  "abi": [
    {
      "anonymous": false,
      "inputs": [
        {
          "indexed": false,
          "internalType": "address",
          "name": "_voter",
          "type": "address"
        },
        {
          "indexed": false,
          "internalType": "uint256",
          "name": "_value",
          "type": "uint256"
        }
      ],
      "name": "Voted",
      "type": "event"
    },
    {
      "inputs": [
        {
          "internalType": "address",
          "name": "",
          "type": "address"
        }
      ],
      "name": "votes",
      "outputs": [
        {
          "internalType": "uint256",
          "name": "",
          "type": "uint256"
        }
      ],
      "stateMutability": "view",
      "type": "function",
      "constant": true
    },
    {
      "inputs": [],
      "name": "getPool",
      "outputs": [
        {
          "internalType": "string",
          "name": "",
          "type": "string"
        }
      ],
      "stateMutability": "view",
      "type": "function",
      "constant": true
    },
    {
      "inputs": [
        {
          "internalType": "uint256",
          "name": "selection",
          "type": "uint256"
        }
      ],
      "name": "vote",
      "outputs": [],
      "stateMutability": "nonpayable",
      "type": "function"
    }
  ],
  "bytecode": "0x60806040526040518060400160405280601981526020017f436f666665653f3f3f20312d20594553202f2032202d204e4f00000000000000815250600190816200004a9190620002d9565b503480156200005857600080fd5b50620003c0565b600081519050919050565b7f4e487b7100000000000000000000000000000000000000000000000000000000600052604160045260246000fd5b7f4e487b7100000000000000000000000000000000000000000000000000000000600052602260045260246000fd5b60006002820490506001821680620000e157607f821691505b602082108103620000f757620000f662000099565b5b50919050565b60008190508160005260206000209050919050565b60006020601f8301049050919050565b600082821b905092915050565b600060088302620001617fffffffffffffffffffffffffffffffffffffffffffffffffffffffffffffffff8262000122565b6200016d868362000122565b95508019841693508086168417925050509392505050565b6000819050919050565b6000819050919050565b6000620001ba620001b4620001ae8462000185565b6200018f565b62000185565b9050919050565b6000819050919050565b620001d68362000199565b620001ee620001e582620001c1565b8484546200012f565b825550505050565b600090565b62000205620001f6565b62000212818484620001cb565b505050565b5b818110156200023a576200022e600082620001fb565b60018101905062000218565b5050565b601f82111562000289576200025381620000fd565b6200025e8462000112565b810160208510156200026e578190505b620002866200027d8562000112565b83018262000217565b50505b505050565b600082821c905092915050565b6000620002ae600019846008026200028e565b1980831691505092915050565b6000620002c983836200029b565b9150826002028217905092915050565b620002e4826200005f565b67ffffffffffffffff8111156200030057620002ff6200006a565b5b6200030c8254620000c8565b620003198282856200023e565b600060209050601f8311600181146200035157600084156200033c578287015190505b620003488582620002bb565b865550620003b8565b601f1984166200036186620000fd565b60005b828110156200038b5784890151825560018201915060208501945060208101905062000364565b86831015620003ab5784890151620003a7601f8916826200029b565b8355505b6001600288020188555050505b505050505050565b6104db80620003d06000396000f3fe608060405234801561001057600080fd5b50600436106100415760003560e01c80630121b93f14610046578063026b1d5f14610062578063d8bff5a514610080575b600080fd5b610060600480360381019061005b9190610279565b6100b0565b005b61006a610194565b6040516100779190610336565b60405180910390f35b61009a600480360381019061009591906103b6565b610226565b6040516100a791906103f2565b60405180910390f35b7f4d99b957a2bc29a30ebd96a7be8e68fe50a3c701db28a91436490b7d53870ca433826040516100e192919061041c565b60405180910390a160008060003373ffffffffffffffffffffffffffffffffffffffff1673ffffffffffffffffffffffffffffffffffffffff168152602001908152602001600020541461013457600080fd5b600081118015610145575060028111155b61014e57600080fd5b806000803373ffffffffffffffffffffffffffffffffffffffff1673ffffffffffffffffffffffffffffffffffffffff1681526020019081526020016000208190555050565b6060600180546101a390610474565b80601f01602080910402602001604051908101604052809291908181526020018280546101cf90610474565b801561021c5780601f106101f15761010080835404028352916020019161021c565b820191906000526020600020905b8154815290600101906020018083116101ff57829003601f168201915b5050505050905090565b60006020528060005260406000206000915090505481565b600080fd5b6000819050919050565b61025681610243565b811461026157600080fd5b50565b6000813590506102738161024d565b92915050565b60006020828403121561028f5761028e61023e565b5b600061029d84828501610264565b91505092915050565b600081519050919050565b600082825260208201905092915050565b60005b838110156102e05780820151818401526020810190506102c5565b60008484015250505050565b6000601f19601f8301169050919050565b6000610308826102a6565b61031281856102b1565b93506103228185602086016102c2565b61032b816102ec565b840191505092915050565b6000602082019050818103600083015261035081846102fd565b905092915050565b600073ffffffffffffffffffffffffffffffffffffffff82169050919050565b600061038382610358565b9050919050565b61039381610378565b811461039e57600080fd5b50565b6000813590506103b08161038a565b92915050565b6000602082840312156103cc576103cb61023e565b5b60006103da848285016103a1565b91505092915050565b6103ec81610243565b82525050565b600060208201905061040760008301846103e3565b92915050565b61041681610378565b82525050565b6000604082019050610431600083018561040d565b61043e60208301846103e3565b9392505050565b7f4e487b7100000000000000000000000000000000000000000000000000000000600052602260045260246000fd5b6000600282049050600182168061048c57607f821691505b60208210810361049f5761049e610445565b5b5091905056fea2646970667358221220dfe7a4e69d08d0a069ba1a44c570a8f3af596baf869bcec15e38e2ad578bbd9764736f6c63430008110033",
  "immutableReferences": {},
  "source": "// SPDX-License-Identifier: GPL-3.0\r\npragma solidity >=0.4.25 <0.9.0;\r\n\r\ncontract Pool {\r\n    event Voted(\r\n        address _voter,\r\n        uint _value\r\n    );\r\n\r\n    mapping(address => uint) public votes;\r\n\r\n    string poolSubject = \"Coffee??? 1- YES / 2 - NO\";\r\n\r\n    function getPool() public view returns (string memory) {\r\n       return poolSubject;\r\n    }\r\n\r\n    function vote(uint selection) public {\r\n        emit Voted(msg.sender, selection);\r\n        \r\n        require (votes[msg.sender] == 0);\r\n        require (selection > 0 && selection <=2);\r\n\r\n        votes[msg.sender] = selection;\r\n    }\r\n}",
  "sourcePath": "D:\\dev\\block-chain-playground\\java\\Web3Samples\\Web3Samples\\solidity\\contracts\\Pool.sol",
  "compiler": {
    "name": "solc",
    "version": "0.8.17+commit.8df45f5f.Emscripten.clang"
  },
  "schemaVersion": "3.4.11",
  "updatedAt": "2023-01-15T16:47:53.616Z",
  "networkType": "ethereum",
  "devdoc": {
    "kind": "dev",
    "methods": {},
    "version": 1
  },
  "userdoc": {
    "kind": "user",
    "methods": {},
    "version": 1
  }
}